{
  "_format": "hh-sol-artifact-1",
  "contractName": "ChainlinkVerifier",
  "sourceName": "contracts/ChainlinkVerifier.sol",
  "abi": [
    {
      "inputs": [
        {
          "internalType": "address",
          "name": "_router",
          "type": "address"
        },
        {
          "internalType": "bytes32",
          "name": "_donId",
          "type": "bytes32"
        },
        {
          "internalType": "uint64",
          "name": "_subscriptionId",
          "type": "uint64"
        },
        {
          "internalType": "address",
          "name": "_gateway",
          "type": "address"
        }
      ],
      "stateMutability": "nonpayable",
      "type": "constructor"
    },
    {
      "anonymous": false,
      "inputs": [
        {
          "indexed": true,
          "internalType": "bytes32",
          "name": "requestId",
          "type": "bytes32"
        },
        {
          "indexed": false,
          "internalType": "bool",
          "name": "passed",
          "type": "bool"
        },
        {
          "indexed": false,
          "internalType": "uint8",
          "name": "confidence",
          "type": "uint8"
        },
        {
          "indexed": false,
          "internalType": "string",
          "name": "feedback",
          "type": "string"
        }
      ],
      "name": "VerificationComplete",
      "type": "event"
    },
    {
      "anonymous": false,
      "inputs": [
        {
          "indexed": true,
          "internalType": "bytes32",
          "name": "requestId",
          "type": "bytes32"
        },
        {
          "indexed": false,
          "internalType": "bytes32",
          "name": "escrowId",
          "type": "bytes32"
        },
        {
          "indexed": false,
          "internalType": "string",
          "name": "prompt",
          "type": "string"
        },
        {
          "indexed": false,
          "internalType": "string",
          "name": "fileCID",
          "type": "string"
        }
      ],
      "name": "VerificationRequested",
      "type": "event"
    },
    {
      "inputs": [],
      "name": "donId",
      "outputs": [
        {
          "internalType": "bytes32",
          "name": "",
          "type": "bytes32"
        }
      ],
      "stateMutability": "view",
      "type": "function"
    },
    {
      "inputs": [
        {
          "internalType": "bytes32",
          "name": "requestId",
          "type": "bytes32"
        },
        {
          "internalType": "bool",
          "name": "passed",
          "type": "bool"
        },
        {
          "internalType": "uint8",
          "name": "confidence",
          "type": "uint8"
        },
        {
          "internalType": "string",
          "name": "feedback",
          "type": "string"
        }
      ],
      "name": "fulfillRequest",
      "outputs": [],
      "stateMutability": "nonpayable",
      "type": "function"
    },
    {
      "inputs": [],
      "name": "gasLimit",
      "outputs": [
        {
          "internalType": "uint32",
          "name": "",
          "type": "uint32"
        }
      ],
      "stateMutability": "view",
      "type": "function"
    },
    {
      "inputs": [],
      "name": "gateway",
      "outputs": [
        {
          "internalType": "address",
          "name": "",
          "type": "address"
        }
      ],
      "stateMutability": "view",
      "type": "function"
    },
    {
      "inputs": [
        {
          "internalType": "string",
          "name": "prompt",
          "type": "string"
        },
        {
          "internalType": "string",
          "name": "fileCID",
          "type": "string"
        },
        {
          "internalType": "bytes32",
          "name": "escrowId",
          "type": "bytes32"
        }
      ],
      "name": "requestVerification",
      "outputs": [
        {
          "internalType": "bytes32",
          "name": "",
          "type": "bytes32"
        }
      ],
      "stateMutability": "nonpayable",
      "type": "function"
    },
    {
      "inputs": [
        {
          "internalType": "bytes32",
          "name": "",
          "type": "bytes32"
        }
      ],
      "name": "requests",
      "outputs": [
        {
          "internalType": "bytes32",
          "name": "escrowId",
          "type": "bytes32"
        },
        {
          "internalType": "string",
          "name": "prompt",
          "type": "string"
        },
        {
          "internalType": "string",
          "name": "fileCID",
          "type": "string"
        },
        {
          "internalType": "address",
          "name": "requester",
          "type": "address"
        }
      ],
      "stateMutability": "view",
      "type": "function"
    },
    {
      "inputs": [],
      "name": "router",
      "outputs": [
        {
          "internalType": "address",
          "name": "",
          "type": "address"
        }
      ],
      "stateMutability": "view",
      "type": "function"
    },
    {
      "inputs": [],
      "name": "subscriptionId",
      "outputs": [
        {
          "internalType": "uint64",
          "name": "",
          "type": "uint64"
        }
      ],
      "stateMutability": "view",
      "type": "function"
    }
  ],
  "bytecode": "0x60806040526001805463ffffffff60401b19166a0493e0000000000000000017905534801561002d57600080fd5b50604051610d25380380610d2583398101604081905261004c916100c7565b600280546001600160a01b039586166001600160a01b031990911617905560009290925560018054929093166c01000000000000000000000000026bffffffff00000000000000009092166001600160401b0390911617179055610123565b80516001600160a01b03811681146100c257600080fd5b919050565b600080600080608085870312156100dd57600080fd5b6100e6856100ab565b6020860151604087015191955093506001600160401b038116811461010a57600080fd5b9150610118606086016100ab565b905092959194509250565b610bf3806101326000396000f3fe608060405234801561001057600080fd5b50600436106100885760003560e01c80639d8669851161005b5780639d8669851461011d578063bad5021514610140578063f68016b714610153578063f887ea401461018457600080fd5b806309c1ba2e1461008d578063116191b6146100bf5780631a3ed3be146100f15780638dbe7b9d14610106575b600080fd5b6001546100a19067ffffffffffffffff1681565b60405167ffffffffffffffff90911681526020015b60405180910390f35b6001546100d990600160601b90046001600160a01b031681565b6040516001600160a01b0390911681526020016100b6565b6101046100ff366004610743565b610197565b005b61010f60005481565b6040519081526020016100b6565b61013061012b36600461082e565b61047d565b6040516100b69493929190610897565b61010f61014e366004610925565b6105bf565b60015461016f9068010000000000000000900463ffffffff1681565b60405163ffffffff90911681526020016100b6565b6002546100d9906001600160a01b031681565b6002546001600160a01b031633146101e45760405162461bcd60e51b815260206004820152600b60248201526a27b7363c903937baba32b960a91b60448201526064015b60405180910390fd5b6000600360008681526020019081526020016000206040518060800160405290816000820154815260200160018201805461021e90610999565b80601f016020809104026020016040519081016040528092919081815260200182805461024a90610999565b80156102975780601f1061026c57610100808354040283529160200191610297565b820191906000526020600020905b81548152906001019060200180831161027a57829003601f168201915b505050505081526020016002820180546102b090610999565b80601f01602080910402602001604051908101604052809291908181526020018280546102dc90610999565b80156103295780601f106102fe57610100808354040283529160200191610329565b820191906000526020600020905b81548152906001019060200180831161030c57829003601f168201915b5050509183525050600391909101546001600160a01b031660209091015260405190915085907f7294aa7c0180194648eb974c31349f37fcb84cbb69fd26a89bc495374433bdf390610380908790879087906109d3565b60405180910390a2600154815160405160248101919091528515156044820152600091600160601b90046001600160a01b03169060640160408051601f198184030181529181526020820180516001600160e01b03166397141f2160e01b179052516103ec9190610a00565b6000604051808303816000865af19150503d8060008114610429576040519150601f19603f3d011682016040523d82523d6000602084013e61042e565b606091505b50509050806104755760405162461bcd60e51b815260206004820152601360248201527211d85d195dd85e4818d85b1b0819985a5b1959606a1b60448201526064016101db565b505050505050565b6003602052600090815260409020805460018201805491929161049f90610999565b80601f01602080910402602001604051908101604052809291908181526020018280546104cb90610999565b80156105185780601f106104ed57610100808354040283529160200191610518565b820191906000526020600020905b8154815290600101906020018083116104fb57829003601f168201915b50505050509080600201805461052d90610999565b80601f016020809104026020016040519081016040528092919081815260200182805461055990610999565b80156105a65780601f1061057b576101008083540402835291602001916105a6565b820191906000526020600020905b81548152906001019060200180831161058957829003601f168201915b505050600390930154919250506001600160a01b031684565b6000808287878787426040516020016105dd96959493929190610a1c565b604051602081830303815290604052805190602001209050604051806080016040528084815260200188888080601f016020809104026020016040519081016040528093929190818152602001838380828437600092019190915250505090825250604080516020601f8901819004810282018101909252878152918101919088908890819084018382808284376000920182905250938552505033602093840152508381526003825260409020825181559082015160018201906106a29082610a9b565b50604082015160028201906106b79082610a9b565b5060609190910151600390910180546001600160a01b0319166001600160a01b0390921691909117905560405181907fafe4c7755d0de9f67ff5b28e7dbdbbac9e7a2dbf10603176174822cd831acf259061071b9086908b908b908b908b90610b84565b60405180910390a29695505050505050565b634e487b7160e01b600052604160045260246000fd5b6000806000806080858703121561075957600080fd5b843593506020850135801515811461077057600080fd5b9250604085013560ff8116811461078657600080fd5b9150606085013567ffffffffffffffff808211156107a357600080fd5b818701915087601f8301126107b757600080fd5b8135818111156107c9576107c961072d565b604051601f8201601f19908116603f011681019083821181831017156107f1576107f161072d565b816040528281528a602084870101111561080a57600080fd5b82602086016020830137600060208483010152809550505050505092959194509250565b60006020828403121561084057600080fd5b5035919050565b60005b8381101561086257818101518382015260200161084a565b50506000910152565b60008151808452610883816020860160208601610847565b601f01601f19169290920160200192915050565b8481526080602082015260006108b0608083018661086b565b82810360408401526108c2818661086b565b91505060018060a01b038316606083015295945050505050565b60008083601f8401126108ee57600080fd5b50813567ffffffffffffffff81111561090657600080fd5b60208301915083602082850101111561091e57600080fd5b9250929050565b60008060008060006060868803121561093d57600080fd5b853567ffffffffffffffff8082111561095557600080fd5b61096189838a016108dc565b9097509550602088013591508082111561097a57600080fd5b50610987888289016108dc565b96999598509660400135949350505050565b600181811c908216806109ad57607f821691505b6020821081036109cd57634e487b7160e01b600052602260045260246000fd5b50919050565b831515815260ff831660208201526060604082015260006109f7606083018461086b565b95945050505050565b60008251610a12818460208701610847565b9190910192915050565b8681528486602083013760008582016020810160008152858782375060209401938401929092525050604001949350505050565b601f821115610a9657600081815260208120601f850160051c81016020861015610a775750805b601f850160051c820191505b8181101561047557828155600101610a83565b505050565b815167ffffffffffffffff811115610ab557610ab561072d565b610ac981610ac38454610999565b84610a50565b602080601f831160018114610afe5760008415610ae65750858301515b600019600386901b1c1916600185901b178555610475565b600085815260208120601f198616915b82811015610b2d57888601518255948401946001909101908401610b0e565b5085821015610b4b5787850151600019600388901b60f8161c191681555b5050505050600190811b01905550565b81835281816020850137506000828201602090810191909152601f909101601f19169091010190565b858152606060208201526000610b9e606083018688610b5b565b8281036040840152610bb1818587610b5b565b9897505050505050505056fea2646970667358221220e9aa70f31e948503a8d2594b157c71328abbc8f8541d9e89aa4b9d3f039aec3964736f6c63430008140033",
  "linkReferences": {},
  "deployedLinkReferences": {}
}