{
  "_format": "hh-sol-artifact-1",
  "contractName": "ZetaEscrowGateway",
  "sourceName": "contracts/ZetaEscrowGateway.sol",
  "abi": [
    {
      "inputs": [
        {
          "internalType": "address",
          "name": "_gateway",
          "type": "address"
        },
        {
          "internalType": "address",
          "name": "_treasury",
          "type": "address"
        }
      ],
      "stateMutability": "nonpayable",
      "type": "constructor"
    },
    {
      "anonymous": false,
      "inputs": [
        {
          "indexed": true,
          "internalType": "bytes32",
          "name": "escrowId",
          "type": "bytes32"
        },
        {
          "indexed": false,
          "internalType": "address",
          "name": "client",
          "type": "address"
        },
        {
          "indexed": false,
          "internalType": "address",
          "name": "freelancer",
          "type": "address"
        },
        {
          "indexed": false,
          "internalType": "uint256",
          "name": "amount",
          "type": "uint256"
        }
      ],
      "name": "EscrowCreated",
      "type": "event"
    },
    {
      "anonymous": false,
      "inputs": [
        {
          "indexed": true,
          "internalType": "bytes32",
          "name": "escrowId",
          "type": "bytes32"
        },
        {
          "indexed": false,
          "internalType": "uint256",
          "name": "amount",
          "type": "uint256"
        }
      ],
      "name": "EscrowReleased",
      "type": "event"
    },
    {
      "anonymous": false,
      "inputs": [
        {
          "indexed": true,
          "internalType": "bytes32",
          "name": "escrowId",
          "type": "bytes32"
        },
        {
          "indexed": false,
          "internalType": "bool",
          "name": "result",
          "type": "bool"
        }
      ],
      "name": "VerificationCompleted",
      "type": "event"
    },
    {
      "anonymous": false,
      "inputs": [
        {
          "indexed": true,
          "internalType": "bytes32",
          "name": "escrowId",
          "type": "bytes32"
        },
        {
          "indexed": false,
          "internalType": "bytes32",
          "name": "requestId",
          "type": "bytes32"
        }
      ],
      "name": "VerificationRequested",
      "type": "event"
    },
    {
      "inputs": [],
      "name": "PROTOCOL_FEE",
      "outputs": [
        {
          "internalType": "uint256",
          "name": "",
          "type": "uint256"
        }
      ],
      "stateMutability": "view",
      "type": "function"
    },
    {
      "inputs": [
        {
          "internalType": "bytes",
          "name": "solanaProgramId",
          "type": "bytes"
        },
        {
          "internalType": "address",
          "name": "client",
          "type": "address"
        },
        {
          "internalType": "address",
          "name": "freelancer",
          "type": "address"
        },
        {
          "internalType": "uint256",
          "name": "amount",
          "type": "uint256"
        },
        {
          "internalType": "string",
          "name": "metadata",
          "type": "string"
        }
      ],
      "name": "createEscrow",
      "outputs": [],
      "stateMutability": "payable",
      "type": "function"
    },
    {
      "inputs": [
        {
          "internalType": "bytes32",
          "name": "",
          "type": "bytes32"
        }
      ],
      "name": "escrows",
      "outputs": [
        {
          "internalType": "bytes32",
          "name": "escrowId",
          "type": "bytes32"
        },
        {
          "internalType": "bytes",
          "name": "solanaProgramId",
          "type": "bytes"
        },
        {
          "internalType": "address",
          "name": "client",
          "type": "address"
        },
        {
          "internalType": "address",
          "name": "freelancer",
          "type": "address"
        },
        {
          "internalType": "uint256",
          "name": "amount",
          "type": "uint256"
        },
        {
          "internalType": "string",
          "name": "metadata",
          "type": "string"
        },
        {
          "internalType": "enum ZetaEscrowGateway.EscrowStatus",
          "name": "status",
          "type": "uint8"
        },
        {
          "internalType": "bytes32",
          "name": "chainlinkRequestId",
          "type": "bytes32"
        }
      ],
      "stateMutability": "view",
      "type": "function"
    },
    {
      "inputs": [],
      "name": "gateway",
      "outputs": [
        {
          "internalType": "contract IGatewayZEVM",
          "name": "",
          "type": "address"
        }
      ],
      "stateMutability": "view",
      "type": "function"
    },
    {
      "inputs": [
        {
          "internalType": "bytes32",
          "name": "escrowId",
          "type": "bytes32"
        },
        {
          "internalType": "bool",
          "name": "verificationResult",
          "type": "bool"
        }
      ],
      "name": "handleCrossChainCall",
      "outputs": [],
      "stateMutability": "nonpayable",
      "type": "function"
    },
    {
      "inputs": [
        {
          "components": [
            {
              "internalType": "address",
              "name": "sender",
              "type": "address"
            }
          ],
          "internalType": "struct IUniversalContract.MessageContext",
          "name": "context",
          "type": "tuple"
        },
        {
          "internalType": "address",
          "name": "zrc20",
          "type": "address"
        },
        {
          "internalType": "uint256",
          "name": "amount",
          "type": "uint256"
        },
        {
          "internalType": "bytes",
          "name": "message",
          "type": "bytes"
        }
      ],
      "name": "onCall",
      "outputs": [],
      "stateMutability": "nonpayable",
      "type": "function"
    },
    {
      "inputs": [
        {
          "components": [
            {
              "internalType": "bytes",
              "name": "revertMessage",
              "type": "bytes"
            }
          ],
          "internalType": "struct IUniversalContract.RevertContext",
          "name": "context",
          "type": "tuple"
        }
      ],
      "name": "onRevert",
      "outputs": [],
      "stateMutability": "nonpayable",
      "type": "function"
    },
    {
      "inputs": [
        {
          "internalType": "bytes",
          "name": "solanaEscrowId",
          "type": "bytes"
        }
      ],
      "name": "releaseFunds",
      "outputs": [],
      "stateMutability": "nonpayable",
      "type": "function"
    },
    {
      "inputs": [
        {
          "internalType": "bytes32",
          "name": "",
          "type": "bytes32"
        }
      ],
      "name": "solanaToZetaMapping",
      "outputs": [
        {
          "internalType": "bytes32",
          "name": "",
          "type": "bytes32"
        }
      ],
      "stateMutability": "view",
      "type": "function"
    },
    {
      "inputs": [],
      "name": "treasury",
      "outputs": [
        {
          "internalType": "address",
          "name": "",
          "type": "address"
        }
      ],
      "stateMutability": "view",
      "type": "function"
    },
    {
      "stateMutability": "payable",
      "type": "receive"
    }
  ],
  "bytecode": "0x608060405234801561001057600080fd5b5060405161113c38038061113c83398101604081905261002f9161007c565b600080546001600160a01b039384166001600160a01b031991821617909155600180549290931691161790556100af565b80516001600160a01b038116811461007757600080fd5b919050565b6000806040838503121561008f57600080fd5b61009883610060565b91506100a660208401610060565b90509250929050565b61107e806100be6000396000f3fe6080604052600436106100955760003560e01c80633bc37717116100595780633bc377171461017757806361d027b3146101975780637a1070b5146101b757806397141f21146101ca578063b569e847146101ea57600080fd5b806306ee39e6146100a15780630b4501fd146100c3578063116191b6146100eb578063291e06f2146101235780632d83549c1461014357600080fd5b3661009c57005b600080fd5b3480156100ad57600080fd5b506100c16100bc366004610acf565b610217565b005b3480156100cf57600080fd5b506100d8600a81565b6040519081526020015b60405180910390f35b3480156100f757600080fd5b5060005461010b906001600160a01b031681565b6040516001600160a01b0390911681526020016100e2565b34801561012f57600080fd5b506100c161013e366004610b24565b610394565b34801561014f57600080fd5b5061016361015e366004610b59565b610473565b6040516100e2989796959493929190610bce565b34801561018357600080fd5b506100c1610192366004610c69565b6105d9565b3480156101a357600080fd5b5060015461010b906001600160a01b031681565b6100c16101c5366004610d07565b6107b8565b3480156101d657600080fd5b506100c16101e5366004610d9e565b6109ab565b3480156101f657600080fd5b506100d8610205366004610b59565b60036020526000908152604090205481565b805160208083019190912060009081526003808352604080832054808452600290945290912090600682015460ff16600581111561025757610257610bb8565b146102985760405162461bcd60e51b815260206004820152600c60248201526b139bdd081d995c9a599a595960a21b60448201526064015b60405180910390fd5b60006064600a83600401546102ad9190610de9565b6102b79190610e06565b905060008183600401546102cb9190610e28565b60068401805460ff1916600417905560038401546040519192506001600160a01b0316906108fc8315029083906000818181858888f19350505050158015610317573d6000803e3d6000fd5b506001546040516001600160a01b039091169083156108fc029084906000818181858888f19350505050158015610352573d6000803e3d6000fd5b50837f9410e7c5b50451e4b5bd5ce113fd48abebd7070eb9d080df08b115b7cdc416508260405161038591815260200190565b60405180910390a25050505050565b6000546001600160a01b031633146103dd5760405162461bcd60e51b815260206004820152600c60248201526b155b985d5d1a1bdc9a5e995960a21b604482015260640161028f565b60006103e98280610e3b565b8101906103f69190610b59565b600081815260026020819052604090912090810154919250906001600160a01b03161561046e5760068101805460ff19166005179055600281015460048201546040516001600160a01b03909216916108fc82150291906000818181858888f1935050505015801561046c573d6000803e3d6000fd5b505b505050565b6002602052600090815260409020805460018201805491929161049590610e89565b80601f01602080910402602001604051908101604052809291908181526020018280546104c190610e89565b801561050e5780601f106104e35761010080835404028352916020019161050e565b820191906000526020600020905b8154815290600101906020018083116104f157829003601f168201915b5050505060028301546003840154600485015460058601805495966001600160a01b0394851696949093169450909261054690610e89565b80601f016020809104026020016040519081016040528092919081815260200182805461057290610e89565b80156105bf5780601f10610594576101008083540402835291602001916105bf565b820191906000526020600020905b8154815290600101906020018083116105a257829003601f168201915b505050506006830154600790930154919260ff1691905088565b6000546001600160a01b031633146106225760405162461bcd60e51b815260206004820152600c60248201526b155b985d5d1a1bdc9a5e995960a21b604482015260640161028f565b6000808061063284860186610ebd565b9250925092506040518061010001604052808481526020016040518060200160405280600081525081526020018960000160208101906106729190610f16565b6001600160a01b03908116825284166020820152604081018890526060810183905260800160018152600060209182018190528581526002825260409020825181559082015160018201906106c79082610f88565b5060408201516002820180546001600160a01b039283166001600160a01b03199182161790915560608401516003840180549190931691161790556080820151600482015560a082015160058201906107209082610f88565b5060c082015160068201805460ff1916600183600581111561074457610744610bb8565b021790555060e09190910151600790910155827f0dd968c277d9dc6b36b6ec2b638324c3d937882c64ca109440bc050ebf26cb0761078560208b018b610f16565b604080516001600160a01b0392831681529186166020830152810189905260600160405180910390a25050505050505050565b8134146107fa5760405162461bcd60e51b815260206004820152601060248201526f125b98dbdc9c9958dd08185b5bdd5b9d60821b604482015260640161028f565b6040516bffffffffffffffffffffffff19606086811b8216602084015285901b166034820152426048820152600090606801604051602081830303815290604052805190602001209050604051806101000160405280828152602001878152602001866001600160a01b03168152602001856001600160a01b031681526020018481526020018381526020016001600581111561089957610899610bb8565b8152600060209182018190528381526002825260409020825181559082015160018201906108c79082610f88565b5060408201516002820180546001600160a01b039283166001600160a01b03199182161790915560608401516003840180549190931691161790556080820151600482015560a082015160058201906109209082610f88565b5060c082015160068201805460ff1916600183600581111561094457610944610bb8565b021790555060e09190910151600790910155604080516001600160a01b0380881682528616602082015290810184905281907f0dd968c277d9dc6b36b6ec2b638324c3d937882c64ca109440bc050ebf26cb079060600160405180910390a2505050505050565b6000828152600260205260409020816109c55760016109c8565b60035b60068201805460ff191660018360058111156109e6576109e6610bb8565b0217905550827fa289beb80c68c0f30d87dd708a039781dd73018ea8370cd36dbd9cc5ebe9fb7483604051610a1f911515815260200190565b60405180910390a2505050565b634e487b7160e01b600052604160045260246000fd5b600082601f830112610a5357600080fd5b813567ffffffffffffffff80821115610a6e57610a6e610a2c565b604051601f8301601f19908116603f01168101908282118183101715610a9657610a96610a2c565b81604052838152866020858801011115610aaf57600080fd5b836020870160208301376000602085830101528094505050505092915050565b600060208284031215610ae157600080fd5b813567ffffffffffffffff811115610af857600080fd5b610b0484828501610a42565b949350505050565b600060208284031215610b1e57600080fd5b50919050565b600060208284031215610b3657600080fd5b813567ffffffffffffffff811115610b4d57600080fd5b610b0484828501610b0c565b600060208284031215610b6b57600080fd5b5035919050565b6000815180845260005b81811015610b9857602081850181015186830182015201610b7c565b506000602082860101526020601f19601f83011685010191505092915050565b634e487b7160e01b600052602160045260246000fd5b60006101008a8352806020840152610be88184018b610b72565b6001600160a01b038a81166040860152891660608501526080840188905283810360a08501529050610c1a8187610b72565b91505060068410610c3b57634e487b7160e01b600052602160045260246000fd5b60c082019390935260e001529695505050505050565b6001600160a01b0381168114610c6657600080fd5b50565b600080600080600060808688031215610c8157600080fd5b610c8b8787610b0c565b94506020860135610c9b81610c51565b935060408601359250606086013567ffffffffffffffff80821115610cbf57600080fd5b818801915088601f830112610cd357600080fd5b813581811115610ce257600080fd5b896020828501011115610cf457600080fd5b9699959850939650602001949392505050565b600080600080600060a08688031215610d1f57600080fd5b853567ffffffffffffffff80821115610d3757600080fd5b610d4389838a01610a42565b965060208801359150610d5582610c51565b909450604087013590610d6782610c51565b9093506060870135925060808701359080821115610d8457600080fd5b50610d9188828901610a42565b9150509295509295909350565b60008060408385031215610db157600080fd5b8235915060208301358015158114610dc857600080fd5b809150509250929050565b634e487b7160e01b600052601160045260246000fd5b8082028115828204841417610e0057610e00610dd3565b92915050565b600082610e2357634e487b7160e01b600052601260045260246000fd5b500490565b81810381811115610e0057610e00610dd3565b6000808335601e19843603018112610e5257600080fd5b83018035915067ffffffffffffffff821115610e6d57600080fd5b602001915036819003821315610e8257600080fd5b9250929050565b600181811c90821680610e9d57607f821691505b602082108103610b1e57634e487b7160e01b600052602260045260246000fd5b600080600060608486031215610ed257600080fd5b833592506020840135610ee481610c51565b9150604084013567ffffffffffffffff811115610f0057600080fd5b610f0c86828701610a42565b9150509250925092565b600060208284031215610f2857600080fd5b8135610f3381610c51565b9392505050565b601f82111561046e57600081815260208120601f850160051c81016020861015610f615750805b601f850160051c820191505b81811015610f8057828155600101610f6d565b505050505050565b815167ffffffffffffffff811115610fa257610fa2610a2c565b610fb681610fb08454610e89565b84610f3a565b602080601f831160018114610feb5760008415610fd35750858301515b600019600386901b1c1916600185901b178555610f80565b600085815260208120601f198616915b8281101561101a57888601518255948401946001909101908401610ffb565b50858210156110385787850151600019600388901b60f8161c191681555b5050505050600190811b0190555056fea2646970667358221220b756631f34383b3e026b1fe19492870f07a01d10930078886a0713ceb1d53e5564736f6c63430008140033",
  "linkReferences": {},
  "deployedLinkReferences": {}
}